{
  "_format": "hh-sol-artifact-1",
  "contractName": "AcademicCertificate",
  "sourceName": "contracts/AcademicCertificate.sol",
  "abi": [
    {
      "inputs": [],
      "stateMutability": "nonpayable",
      "type": "constructor"
    },
    {
      "anonymous": false,
      "inputs": [
        {
          "indexed": true,
          "internalType": "address",
          "name": "previousAdmin",
          "type": "address"
        },
        {
          "indexed": true,
          "internalType": "address",
          "name": "newAdmin",
          "type": "address"
        }
      ],
      "name": "AdminTransferred",
      "type": "event"
    },
    {
      "anonymous": false,
      "inputs": [
        {
          "indexed": true,
          "internalType": "bytes32",
          "name": "certificateHash",
          "type": "bytes32"
        },
        {
          "indexed": true,
          "internalType": "address",
          "name": "issuerAddress",
          "type": "address"
        }
      ],
      "name": "CertificateRegistered",
      "type": "event"
    },
    {
      "inputs": [],
      "name": "admin",
      "outputs": [
        {
          "internalType": "address",
          "name": "",
          "type": "address"
        }
      ],
      "stateMutability": "view",
      "type": "function"
    },
    {
      "inputs": [
        {
          "internalType": "bytes32",
          "name": "",
          "type": "bytes32"
        }
      ],
      "name": "certificates",
      "outputs": [
        {
          "internalType": "bytes32",
          "name": "certificateHash",
          "type": "bytes32"
        },
        {
          "internalType": "string",
          "name": "studentName",
          "type": "string"
        },
        {
          "internalType": "uint256",
          "name": "issueDate",
          "type": "uint256"
        },
        {
          "internalType": "address",
          "name": "issuerAddress",
          "type": "address"
        }
      ],
      "stateMutability": "view",
      "type": "function"
    },
    {
      "inputs": [
        {
          "internalType": "bytes32",
          "name": "_certificateHash",
          "type": "bytes32"
        }
      ],
      "name": "getCertificate",
      "outputs": [
        {
          "internalType": "string",
          "name": "studentName",
          "type": "string"
        },
        {
          "internalType": "uint256",
          "name": "issueDate",
          "type": "uint256"
        },
        {
          "internalType": "address",
          "name": "issuerAddress",
          "type": "address"
        }
      ],
      "stateMutability": "view",
      "type": "function"
    },
    {
      "inputs": [
        {
          "internalType": "bytes32",
          "name": "_certificateHash",
          "type": "bytes32"
        },
        {
          "internalType": "string",
          "name": "_studentName",
          "type": "string"
        },
        {
          "internalType": "uint256",
          "name": "_issueDate",
          "type": "uint256"
        }
      ],
      "name": "registerCertificate",
      "outputs": [],
      "stateMutability": "nonpayable",
      "type": "function"
    },
    {
      "inputs": [
        {
          "internalType": "address",
          "name": "newAdmin",
          "type": "address"
        }
      ],
      "name": "transferAdmin",
      "outputs": [],
      "stateMutability": "nonpayable",
      "type": "function"
    }
  ],
  "bytecode": "0x6080604052348015600f57600080fd5b50336000806101000a81548173ffffffffffffffffffffffffffffffffffffffff021916908373ffffffffffffffffffffffffffffffffffffffff1602179055506112288061005f6000396000f3fe608060405234801561001057600080fd5b50600436106100575760003560e01c806318375ece1461005c578063742f06881461007857806375829def146100ab578063f333fe08146100c7578063f851a440146100f9575b600080fd5b6100766004803603810190610071919061095c565b610117565b005b610092600480360381019061008d91906109cb565b610345565b6040516100a29493929190610ad6565b60405180910390f35b6100c560048036038101906100c09190610b4e565b61041d565b005b6100e160048036038101906100dc91906109cb565b6105d7565b6040516100f093929190610b7b565b60405180910390f35b610101610772565b60405161010e9190610bb9565b60405180910390f35b6000801b830361015c576040517f08c379a000000000000000000000000000000000000000000000000000000000815260040161015390610c20565b60405180910390fd5b60008251116101a0576040517f08c379a000000000000000000000000000000000000000000000000000000000815260040161019790610c8c565b60405180910390fd5b600081116101e3576040517f08c379a00000000000000000000000000000000000000000000000000000000081526004016101da90610cf8565b60405180910390fd5b6000801b60016000858152602001908152602001600020600001541461023e576040517f08c379a000000000000000000000000000000000000000000000000000000000815260040161023590610d64565b60405180910390fd5b60405180608001604052808481526020018381526020018281526020013373ffffffffffffffffffffffffffffffffffffffff16815250600160008581526020019081526020016000206000820151816000015560208201518160010190816102a79190610f90565b506040820151816002015560608201518160030160006101000a81548173ffffffffffffffffffffffffffffffffffffffff021916908373ffffffffffffffffffffffffffffffffffffffff1602179055509050503373ffffffffffffffffffffffffffffffffffffffff16837f23a36a65834eee8c934d01dd6115ef5b96b5e09f24816f2fd5f7e441051b14f760405160405180910390a3505050565b600160205280600052604060002060009150905080600001549080600101805461036e90610db3565b80601f016020809104026020016040519081016040528092919081815260200182805461039a90610db3565b80156103e75780601f106103bc576101008083540402835291602001916103e7565b820191906000526020600020905b8154815290600101906020018083116103ca57829003601f168201915b5050505050908060020154908060030160009054906101000a900473ffffffffffffffffffffffffffffffffffffffff16905084565b60008054906101000a900473ffffffffffffffffffffffffffffffffffffffff1673ffffffffffffffffffffffffffffffffffffffff163373ffffffffffffffffffffffffffffffffffffffff16146104ab576040517f08c379a00000000000000000000000000000000000000000000000000000000081526004016104a2906110d4565b60405180910390fd5b600073ffffffffffffffffffffffffffffffffffffffff168173ffffffffffffffffffffffffffffffffffffffff160361051a576040517f08c379a000000000000000000000000000000000000000000000000000000000815260040161051190611166565b60405180910390fd5b8073ffffffffffffffffffffffffffffffffffffffff1660008054906101000a900473ffffffffffffffffffffffffffffffffffffffff1673ffffffffffffffffffffffffffffffffffffffff167ff8ccb027dfcd135e000e9d45e6cc2d662578a8825d4c45b5e32e0adf67e79ec660405160405180910390a3806000806101000a81548173ffffffffffffffffffffffffffffffffffffffff021916908373ffffffffffffffffffffffffffffffffffffffff16021790555050565b60606000806000801b600160008681526020019081526020016000206000015403610637576040517f08c379a000000000000000000000000000000000000000000000000000000000815260040161062e906111d2565b60405180910390fd5b6000600160008681526020019081526020016000206040518060800160405290816000820154815260200160018201805461067190610db3565b80601f016020809104026020016040519081016040528092919081815260200182805461069d90610db3565b80156106ea5780601f106106bf576101008083540402835291602001916106ea565b820191906000526020600020905b8154815290600101906020018083116106cd57829003601f168201915b50505050508152602001600282015481526020016003820160009054906101000a900473ffffffffffffffffffffffffffffffffffffffff1673ffffffffffffffffffffffffffffffffffffffff1673ffffffffffffffffffffffffffffffffffffffff16815250509050806020015181604001518260600151935093509350509193909250565b60008054906101000a900473ffffffffffffffffffffffffffffffffffffffff1681565b6000604051905090565b600080fd5b600080fd5b6000819050919050565b6107bd816107aa565b81146107c857600080fd5b50565b6000813590506107da816107b4565b92915050565b600080fd5b600080fd5b6000601f19601f8301169050919050565b7f4e487b7100000000000000000000000000000000000000000000000000000000600052604160045260246000fd5b610833826107ea565b810181811067ffffffffffffffff82111715610852576108516107fb565b5b80604052505050565b6000610865610796565b9050610871828261082a565b919050565b600067ffffffffffffffff821115610891576108906107fb565b5b61089a826107ea565b9050602081019050919050565b82818337600083830152505050565b60006108c96108c484610876565b61085b565b9050828152602081018484840111156108e5576108e46107e5565b5b6108f08482856108a7565b509392505050565b600082601f83011261090d5761090c6107e0565b5b813561091d8482602086016108b6565b91505092915050565b6000819050919050565b61093981610926565b811461094457600080fd5b50565b60008135905061095681610930565b92915050565b600080600060608486031215610975576109746107a0565b5b6000610983868287016107cb565b935050602084013567ffffffffffffffff8111156109a4576109a36107a5565b5b6109b0868287016108f8565b92505060406109c186828701610947565b9150509250925092565b6000602082840312156109e1576109e06107a0565b5b60006109ef848285016107cb565b91505092915050565b610a01816107aa565b82525050565b600081519050919050565b600082825260208201905092915050565b60005b83811015610a41578082015181840152602081019050610a26565b60008484015250505050565b6000610a5882610a07565b610a628185610a12565b9350610a72818560208601610a23565b610a7b816107ea565b840191505092915050565b610a8f81610926565b82525050565b600073ffffffffffffffffffffffffffffffffffffffff82169050919050565b6000610ac082610a95565b9050919050565b610ad081610ab5565b82525050565b6000608082019050610aeb60008301876109f8565b8181036020830152610afd8186610a4d565b9050610b0c6040830185610a86565b610b196060830184610ac7565b95945050505050565b610b2b81610ab5565b8114610b3657600080fd5b50565b600081359050610b4881610b22565b92915050565b600060208284031215610b6457610b636107a0565b5b6000610b7284828501610b39565b91505092915050565b60006060820190508181036000830152610b958186610a4d565b9050610ba46020830185610a86565b610bb16040830184610ac7565b949350505050565b6000602082019050610bce6000830184610ac7565b92915050565b7f4861736820646f20636572746966696361646f20696e76616c69646f2e000000600082015250565b6000610c0a601d83610a12565b9150610c1582610bd4565b602082019050919050565b60006020820190508181036000830152610c3981610bfd565b9050919050565b7f4e6f6d6520646f20616c756e6f2065206f6272696761746f72696f2e00000000600082015250565b6000610c76601c83610a12565b9150610c8182610c40565b602082019050919050565b60006020820190508181036000830152610ca581610c69565b9050919050565b7f4461746120646520656d697373616f20696e76616c6964612e00000000000000600082015250565b6000610ce2601983610a12565b9150610ced82610cac565b602082019050919050565b60006020820190508181036000830152610d1181610cd5565b9050919050565b7f436572746966696361646f206a61207265676973747261646f2e000000000000600082015250565b6000610d4e601a83610a12565b9150610d5982610d18565b602082019050919050565b60006020820190508181036000830152610d7d81610d41565b9050919050565b7f4e487b7100000000000000000000000000000000000000000000000000000000600052602260045260246000fd5b60006002820490506001821680610dcb57607f821691505b602082108103610dde57610ddd610d84565b5b50919050565b60008190508160005260206000209050919050565b60006020601f8301049050919050565b600082821b905092915050565b600060088302610e467fffffffffffffffffffffffffffffffffffffffffffffffffffffffffffffffff82610e09565b610e508683610e09565b95508019841693508086168417925050509392505050565b6000819050919050565b6000610e8d610e88610e8384610926565b610e68565b610926565b9050919050565b6000819050919050565b610ea783610e72565b610ebb610eb382610e94565b848454610e16565b825550505050565b600090565b610ed0610ec3565b610edb818484610e9e565b505050565b5b81811015610eff57610ef4600082610ec8565b600181019050610ee1565b5050565b601f821115610f4457610f1581610de4565b610f1e84610df9565b81016020851015610f2d578190505b610f41610f3985610df9565b830182610ee0565b50505b505050565b600082821c905092915050565b6000610f6760001984600802610f49565b1980831691505092915050565b6000610f808383610f56565b9150826002028217905092915050565b610f9982610a07565b67ffffffffffffffff811115610fb257610fb16107fb565b5b610fbc8254610db3565b610fc7828285610f03565b600060209050601f831160018114610ffa5760008415610fe8578287015190505b610ff28582610f74565b86555061105a565b601f19841661100886610de4565b60005b828110156110305784890151825560018201915060208501945060208101905061100b565b8683101561104d5784890151611049601f891682610f56565b8355505b6001600288020188555050505b505050505050565b7f4170656e6173206f2061646d696e6973747261646f7220706f6465206578656360008201527f7574617220657374612066756e63616f2e000000000000000000000000000000602082015250565b60006110be603183610a12565b91506110c982611062565b604082019050919050565b600060208201905081810360008301526110ed816110b1565b9050919050565b7f456e64657265636f20696e76616c69646f2070617261206f206e6f766f20616460008201527f6d696e2e00000000000000000000000000000000000000000000000000000000602082015250565b6000611150602483610a12565b915061115b826110f4565b604082019050919050565b6000602082019050818103600083015261117f81611143565b9050919050565b7f436572746966696361646f206e616f20656e636f6e747261646f2e0000000000600082015250565b60006111bc601b83610a12565b91506111c782611186565b602082019050919050565b600060208201905081810360008301526111eb816111af565b905091905056fea2646970667358221220d8811125a674bdad053dea85d9208522427f2912ce68148d5f8bac7af1a6849364736f6c634300081b0033",
  "linkReferences": {},
  "deployedLinkReferences": {}
}