{
    "_format": "hh-sol-artifact-1",
    "contractName": "AcademicCertificate",
    "sourceName": "contracts/AcademicCertificate.sol",
    "abi": [
        {
            "inputs": [],
            "stateMutability": "nonpayable",
            "type": "constructor"
        },
        {
            "anonymous": false,
            "inputs": [
                {
                    "indexed": true,
                    "internalType": "address",
                    "name": "previousAdmin",
                    "type": "address"
                },
                {
                    "indexed": true,
                    "internalType": "address",
                    "name": "newAdmin",
                    "type": "address"
                }
            ],
            "name": "AdminTransferred",
            "type": "event"
        },
        {
            "anonymous": false,
            "inputs": [
                {
                    "indexed": true,
                    "internalType": "bytes32",
                    "name": "certificateHash",
                    "type": "bytes32"
                },
                {
                    "indexed": true,
                    "internalType": "address",
                    "name": "institutionAddress",
                    "type": "address"
                }
            ],
            "name": "CertificateRegistered",
            "type": "event"
        },
        {
            "anonymous": false,
            "inputs": [
                {
                    "indexed": true,
                    "internalType": "address",
                    "name": "institutionAddress",
                    "type": "address"
                },
                {
                    "indexed": false,
                    "internalType": "string",
                    "name": "name",
                    "type": "string"
                }
            ],
            "name": "InstitutionRegistered",
            "type": "event"
        },
        {
            "anonymous": false,
            "inputs": [
                {
                    "indexed": true,
                    "internalType": "address",
                    "name": "institutionAddress",
                    "type": "address"
                },
                {
                    "indexed": false,
                    "internalType": "bool",
                    "name": "isVerified",
                    "type": "bool"
                }
            ],
            "name": "InstitutionVerified",
            "type": "event"
        },
        {
            "inputs": [],
            "name": "admin",
            "outputs": [
                {
                    "internalType": "address",
                    "name": "",
                    "type": "address"
                }
            ],
            "stateMutability": "view",
            "type": "function"
        },
        {
            "inputs": [
                {
                    "internalType": "bytes32",
                    "name": "",
                    "type": "bytes32"
                }
            ],
            "name": "certificates",
            "outputs": [
                {
                    "internalType": "bytes32",
                    "name": "certificateHash",
                    "type": "bytes32"
                },
                {
                    "internalType": "string",
                    "name": "studentName",
                    "type": "string"
                },
                {
                    "internalType": "uint256",
                    "name": "issueDate",
                    "type": "uint256"
                },
                {
                    "internalType": "address",
                    "name": "institutionAddress",
                    "type": "address"
                }
            ],
            "stateMutability": "view",
            "type": "function"
        },
        {
            "inputs": [
                {
                    "internalType": "bytes32",
                    "name": "_certificateHash",
                    "type": "bytes32"
                }
            ],
            "name": "getCertificate",
            "outputs": [
                {
                    "internalType": "string",
                    "name": "studentName",
                    "type": "string"
                },
                {
                    "internalType": "uint256",
                    "name": "issueDate",
                    "type": "uint256"
                },
                {
                    "internalType": "address",
                    "name": "institutionAddress",
                    "type": "address"
                }
            ],
            "stateMutability": "view",
            "type": "function"
        },
        {
            "inputs": [
                {
                    "internalType": "address",
                    "name": "",
                    "type": "address"
                }
            ],
            "name": "institutions",
            "outputs": [
                {
                    "internalType": "string",
                    "name": "name",
                    "type": "string"
                },
                {
                    "internalType": "string",
                    "name": "cnpj",
                    "type": "string"
                },
                {
                    "internalType": "string",
                    "name": "responsible",
                    "type": "string"
                },
                {
                    "internalType": "bool",
                    "name": "isVerified",
                    "type": "bool"
                }
            ],
            "stateMutability": "view",
            "type": "function"
        },
        {
            "inputs": [
                {
                    "internalType": "address",
                    "name": "_institutionAddress",
                    "type": "address"
                }
            ],
            "name": "isInstitutionRegistered",
            "outputs": [
                {
                    "internalType": "bool",
                    "name": "",
                    "type": "bool"
                }
            ],
            "stateMutability": "view",
            "type": "function"
        },
        {
            "inputs": [
                {
                    "internalType": "bytes32",
                    "name": "_certificateHash",
                    "type": "bytes32"
                },
                {
                    "internalType": "string",
                    "name": "_studentName",
                    "type": "string"
                },
                {
                    "internalType": "uint256",
                    "name": "_issueDate",
                    "type": "uint256"
                }
            ],
            "name": "registerCertificate",
            "outputs": [],
            "stateMutability": "nonpayable",
            "type": "function"
        },
        {
            "inputs": [
                {
                    "internalType": "string",
                    "name": "_name",
                    "type": "string"
                },
                {
                    "internalType": "string",
                    "name": "_cnpj",
                    "type": "string"
                },
                {
                    "internalType": "string",
                    "name": "_responsible",
                    "type": "string"
                }
            ],
            "name": "registerInstitution",
            "outputs": [],
            "stateMutability": "nonpayable",
            "type": "function"
        },
        {
            "inputs": [
                {
                    "internalType": "address",
                    "name": "newAdmin",
                    "type": "address"
                }
            ],
            "name": "transferAdmin",
            "outputs": [],
            "stateMutability": "nonpayable",
            "type": "function"
        },
        {
            "inputs": [
                {
                    "internalType": "address",
                    "name": "_institutionAddress",
                    "type": "address"
                }
            ],
            "name": "verifyInstitution",
            "outputs": [],
            "stateMutability": "nonpayable",
            "type": "function"
        }
    ],
    "bytecode": "0x6080604052348015600f57600080fd5b50336000806101000a81548173ffffffffffffffffffffffffffffffffffffffff021916908373ffffffffffffffffffffffffffffffffffffffff160217905550611d768061005f6000396000f3fe608060405234801561001057600080fd5b50600436106100935760003560e01c806383c0e3541161006657806383c0e3541461011f578063abf7d7961461014f578063b2d9767f1461016b578063f333fe081461019e578063f851a440146101d057610093565b806318375ece146100985780633e168516146100b4578063742f0688146100d057806375829def14610103575b600080fd5b6100b260048036038101906100ad91906110a3565b6101ee565b005b6100ce60048036038101906100c99190611170565b6104ab565b005b6100ea60048036038101906100e5919061119d565b61062d565b6040516100fa9493929190611276565b60405180910390f35b61011d60048036038101906101189190611170565b610705565b005b61013960048036038101906101349190611170565b6108bf565b60405161014691906112dd565b60405180910390f35b610169600480360381019061016491906112f8565b610919565b005b61018560048036038101906101809190611170565b610b49565b604051610195949392919061139f565b60405180910390f35b6101b860048036038101906101b3919061119d565b610d1e565b6040516101c7939291906113f9565b60405180910390f35b6101d8610eb9565b6040516101e59190611437565b60405180910390f35b600160003373ffffffffffffffffffffffffffffffffffffffff1673ffffffffffffffffffffffffffffffffffffffff16815260200190815260200160002060030160009054906101000a900460ff1661027d576040517f08c379a00000000000000000000000000000000000000000000000000000000081526004016102749061149e565b60405180910390fd5b6000801b83036102c2576040517f08c379a00000000000000000000000000000000000000000000000000000000081526004016102b99061150a565b60405180910390fd5b6000825111610306576040517f08c379a00000000000000000000000000000000000000000000000000000000081526004016102fd90611576565b60405180910390fd5b60008111610349576040517f08c379a0000000000000000000000000000000000000000000000000000000008152600401610340906115e2565b60405180910390fd5b6000801b6002600085815260200190815260200160002060000154146103a4576040517f08c379a000000000000000000000000000000000000000000000000000000000815260040161039b9061164e565b60405180910390fd5b60405180608001604052808481526020018381526020018281526020013373ffffffffffffffffffffffffffffffffffffffff168152506002600085815260200190815260200160002060008201518160000155602082015181600101908161040d919061187a565b506040820151816002015560608201518160030160006101000a81548173ffffffffffffffffffffffffffffffffffffffff021916908373ffffffffffffffffffffffffffffffffffffffff1602179055509050503373ffffffffffffffffffffffffffffffffffffffff16837f23a36a65834eee8c934d01dd6115ef5b96b5e09f24816f2fd5f7e441051b14f760405160405180910390a3505050565b60008054906101000a900473ffffffffffffffffffffffffffffffffffffffff1673ffffffffffffffffffffffffffffffffffffffff163373ffffffffffffffffffffffffffffffffffffffff1614610539576040517f08c379a0000000000000000000000000000000000000000000000000000000008152600401610530906119be565b60405180910390fd5b610542816108bf565b610581576040517f08c379a000000000000000000000000000000000000000000000000000000000815260040161057890611a2a565b60405180910390fd5b60018060008373ffffffffffffffffffffffffffffffffffffffff1673ffffffffffffffffffffffffffffffffffffffff16815260200190815260200160002060030160006101000a81548160ff0219169083151502179055508073ffffffffffffffffffffffffffffffffffffffff167fc4fcedd564ae1cf0414bc7056387d4dd4437057d44911cb5b28cca79537184b1600160405161062291906112dd565b60405180910390a250565b60026020528060005260406000206000915090508060000154908060010180546106569061169d565b80601f01602080910402602001604051908101604052809291908181526020018280546106829061169d565b80156106cf5780601f106106a4576101008083540402835291602001916106cf565b820191906000526020600020905b8154815290600101906020018083116106b257829003601f168201915b5050505050908060020154908060030160009054906101000a900473ffffffffffffffffffffffffffffffffffffffff16905084565b60008054906101000a900473ffffffffffffffffffffffffffffffffffffffff1673ffffffffffffffffffffffffffffffffffffffff163373ffffffffffffffffffffffffffffffffffffffff1614610793576040517f08c379a000000000000000000000000000000000000000000000000000000000815260040161078a906119be565b60405180910390fd5b600073ffffffffffffffffffffffffffffffffffffffff168173ffffffffffffffffffffffffffffffffffffffff1603610802576040517f08c379a00000000000000000000000000000000000000000000000000000000081526004016107f990611abc565b60405180910390fd5b8073ffffffffffffffffffffffffffffffffffffffff1660008054906101000a900473ffffffffffffffffffffffffffffffffffffffff1673ffffffffffffffffffffffffffffffffffffffff167ff8ccb027dfcd135e000e9d45e6cc2d662578a8825d4c45b5e32e0adf67e79ec660405160405180910390a3806000806101000a81548173ffffffffffffffffffffffffffffffffffffffff021916908373ffffffffffffffffffffffffffffffffffffffff16021790555050565b600080600160008473ffffffffffffffffffffffffffffffffffffffff1673ffffffffffffffffffffffffffffffffffffffff168152602001908152602001600020600001805461090f9061169d565b9050119050919050565b600083511161095d576040517f08c379a000000000000000000000000000000000000000000000000000000000815260040161095490611b4e565b60405180910390fd5b60008251116109a1576040517f08c379a000000000000000000000000000000000000000000000000000000000815260040161099890611bba565b60405180910390fd5b60008151116109e5576040517f08c379a00000000000000000000000000000000000000000000000000000000081526004016109dc90611c26565b60405180910390fd5b6109ee336108bf565b15610a2e576040517f08c379a0000000000000000000000000000000000000000000000000000000008152600401610a2590611c92565b60405180910390fd5b604051806080016040528084815260200183815260200182815260200160001515815250600160003373ffffffffffffffffffffffffffffffffffffffff1673ffffffffffffffffffffffffffffffffffffffff1681526020019081526020016000206000820151816000019081610aa6919061187a565b506020820151816001019081610abc919061187a565b506040820151816002019081610ad2919061187a565b5060608201518160030160006101000a81548160ff0219169083151502179055509050503373ffffffffffffffffffffffffffffffffffffffff167f73a52c071d4a02996481449bf1ad04d8f24559a7ec51210c4ec5e43d3baee88184604051610b3c9190611cb2565b60405180910390a2505050565b6001602052806000526040600020600091509050806000018054610b6c9061169d565b80601f0160208091040260200160405190810160405280929190818152602001828054610b989061169d565b8015610be55780601f10610bba57610100808354040283529160200191610be5565b820191906000526020600020905b815481529060010190602001808311610bc857829003601f168201915b505050505090806001018054610bfa9061169d565b80601f0160208091040260200160405190810160405280929190818152602001828054610c269061169d565b8015610c735780601f10610c4857610100808354040283529160200191610c73565b820191906000526020600020905b815481529060010190602001808311610c5657829003601f168201915b505050505090806002018054610c889061169d565b80601f0160208091040260200160405190810160405280929190818152602001828054610cb49061169d565b8015610d015780601f10610cd657610100808354040283529160200191610d01565b820191906000526020600020905b815481529060010190602001808311610ce457829003601f168201915b5050505050908060030160009054906101000a900460ff16905084565b60606000806000801b600260008681526020019081526020016000206000015403610d7e576040517f08c379a0000000000000000000000000000000000000000000000000000000008152600401610d7590611d20565b60405180910390fd5b60006002600086815260200190815260200160002060405180608001604052908160008201548152602001600182018054610db89061169d565b80601f0160208091040260200160405190810160405280929190818152602001828054610de49061169d565b8015610e315780601f10610e0657610100808354040283529160200191610e31565b820191906000526020600020905b815481529060010190602001808311610e1457829003601f168201915b50505050508152602001600282015481526020016003820160009054906101000a900473ffffffffffffffffffffffffffffffffffffffff1673ffffffffffffffffffffffffffffffffffffffff1673ffffffffffffffffffffffffffffffffffffffff16815250509050806020015181604001518260600151935093509350509193909250565b60008054906101000a900473ffffffffffffffffffffffffffffffffffffffff1681565b6000604051905090565b600080fd5b600080fd5b6000819050919050565b610f0481610ef1565b8114610f0f57600080fd5b50565b600081359050610f2181610efb565b92915050565b600080fd5b600080fd5b6000601f19601f8301169050919050565b7f4e487b7100000000000000000000000000000000000000000000000000000000600052604160045260246000fd5b610f7a82610f31565b810181811067ffffffffffffffff82111715610f9957610f98610f42565b5b80604052505050565b6000610fac610edd565b9050610fb88282610f71565b919050565b600067ffffffffffffffff821115610fd857610fd7610f42565b5b610fe182610f31565b9050602081019050919050565b82818337600083830152505050565b600061101061100b84610fbd565b610fa2565b90508281526020810184848401111561102c5761102b610f2c565b5b611037848285610fee565b509392505050565b600082601f83011261105457611053610f27565b5b8135611064848260208601610ffd565b91505092915050565b6000819050919050565b6110808161106d565b811461108b57600080fd5b50565b60008135905061109d81611077565b92915050565b6000806000606084860312156110bc576110bb610ee7565b5b60006110ca86828701610f12565b935050602084013567ffffffffffffffff8111156110eb576110ea610eec565b5b6110f78682870161103f565b92505060406111088682870161108e565b9150509250925092565b600073ffffffffffffffffffffffffffffffffffffffff82169050919050565b600061113d82611112565b9050919050565b61114d81611132565b811461115857600080fd5b50565b60008135905061116a81611144565b92915050565b60006020828403121561118657611185610ee7565b5b60006111948482850161115b565b91505092915050565b6000602082840312156111b3576111b2610ee7565b5b60006111c184828501610f12565b91505092915050565b6111d381610ef1565b82525050565b600081519050919050565b600082825260208201905092915050565b60005b838110156112135780820151818401526020810190506111f8565b60008484015250505050565b600061122a826111d9565b61123481856111e4565b93506112448185602086016111f5565b61124d81610f31565b840191505092915050565b6112618161106d565b82525050565b61127081611132565b82525050565b600060808201905061128b60008301876111ca565b818103602083015261129d818661121f565b90506112ac6040830185611258565b6112b96060830184611267565b95945050505050565b60008115159050919050565b6112d7816112c2565b82525050565b60006020820190506112f260008301846112ce565b92915050565b60008060006060848603121561131157611310610ee7565b5b600084013567ffffffffffffffff81111561132f5761132e610eec565b5b61133b8682870161103f565b935050602084013567ffffffffffffffff81111561135c5761135b610eec565b5b6113688682870161103f565b925050604084013567ffffffffffffffff81111561138957611388610eec565b5b6113958682870161103f565b9150509250925092565b600060808201905081810360008301526113b9818761121f565b905081810360208301526113cd818661121f565b905081810360408301526113e1818561121f565b90506113f060608301846112ce565b95945050505050565b60006060820190508181036000830152611413818661121f565b90506114226020830185611258565b61142f6040830184611267565b949350505050565b600060208201905061144c6000830184611267565b92915050565b7f496e73746974756963616f206e616f20766572696669636164612e0000000000600082015250565b6000611488601b836111e4565b915061149382611452565b602082019050919050565b600060208201905081810360008301526114b78161147b565b9050919050565b7f4861736820646f20636572746966696361646f20696e76616c69646f2e000000600082015250565b60006114f4601d836111e4565b91506114ff826114be565b602082019050919050565b60006020820190508181036000830152611523816114e7565b9050919050565b7f4e6f6d6520646f20616c756e6f2065206f6272696761746f72696f2e00000000600082015250565b6000611560601c836111e4565b915061156b8261152a565b602082019050919050565b6000602082019050818103600083015261158f81611553565b9050919050565b7f4461746120646520656d697373616f20696e76616c6964612e00000000000000600082015250565b60006115cc6019836111e4565b91506115d782611596565b602082019050919050565b600060208201905081810360008301526115fb816115bf565b9050919050565b7f436572746966696361646f206a61207265676973747261646f2e000000000000600082015250565b6000611638601a836111e4565b915061164382611602565b602082019050919050565b600060208201905081810360008301526116678161162b565b9050919050565b7f4e487b7100000000000000000000000000000000000000000000000000000000600052602260045260246000fd5b600060028204905060018216806116b557607f821691505b6020821081036116c8576116c761166e565b5b50919050565b60008190508160005260206000209050919050565b60006020601f8301049050919050565b600082821b905092915050565b6000600883026117307fffffffffffffffffffffffffffffffffffffffffffffffffffffffffffffffff826116f3565b61173a86836116f3565b95508019841693508086168417925050509392505050565b6000819050919050565b600061177761177261176d8461106d565b611752565b61106d565b9050919050565b6000819050919050565b6117918361175c565b6117a561179d8261177e565b848454611700565b825550505050565b600090565b6117ba6117ad565b6117c5818484611788565b505050565b5b818110156117e9576117de6000826117b2565b6001810190506117cb565b5050565b601f82111561182e576117ff816116ce565b611808846116e3565b81016020851015611817578190505b61182b611823856116e3565b8301826117ca565b50505b505050565b600082821c905092915050565b600061185160001984600802611833565b1980831691505092915050565b600061186a8383611840565b9150826002028217905092915050565b611883826111d9565b67ffffffffffffffff81111561189c5761189b610f42565b5b6118a6825461169d565b6118b18282856117ed565b600060209050601f8311600181146118e457600084156118d2578287015190505b6118dc858261185e565b865550611944565b601f1984166118f2866116ce565b60005b8281101561191a578489015182556001820191506020850194506020810190506118f5565b868310156119375784890151611933601f891682611840565b8355505b6001600288020188555050505b505050505050565b7f4170656e6173206f2061646d696e6973747261646f7220706f6465206578656360008201527f7574617220657374612066756e63616f2e000000000000000000000000000000602082015250565b60006119a86031836111e4565b91506119b38261194c565b604082019050919050565b600060208201905081810360008301526119d78161199b565b9050919050565b7f496e73746974756963616f206e616f20726567697374726164612e0000000000600082015250565b6000611a14601b836111e4565b9150611a1f826119de565b602082019050919050565b60006020820190508181036000830152611a4381611a07565b9050919050565b7f456e64657265636f20696e76616c69646f2070617261206f206e6f766f20616460008201527f6d696e2e00000000000000000000000000000000000000000000000000000000602082015250565b6000611aa66024836111e4565b9150611ab182611a4a565b604082019050919050565b60006020820190508181036000830152611ad581611a99565b9050919050565b7f4e6f6d6520646120696e73746974756963616f2065206f6272696761746f726960008201527f6f2e000000000000000000000000000000000000000000000000000000000000602082015250565b6000611b386022836111e4565b9150611b4382611adc565b604082019050919050565b60006020820190508181036000830152611b6781611b2b565b9050919050565b7f434e504a2065206f6272696761746f72696f2e00000000000000000000000000600082015250565b6000611ba46013836111e4565b9150611baf82611b6e565b602082019050919050565b60006020820190508181036000830152611bd381611b97565b9050919050565b7f526573706f6e736176656c2065206f6272696761746f72696f2e000000000000600082015250565b6000611c10601a836111e4565b9150611c1b82611bda565b602082019050919050565b60006020820190508181036000830152611c3f81611c03565b9050919050565b7f496e73746974756963616f206a6120726567697374726164612e000000000000600082015250565b6000611c7c601a836111e4565b9150611c8782611c46565b602082019050919050565b60006020820190508181036000830152611cab81611c6f565b9050919050565b60006020820190508181036000830152611ccc818461121f565b905092915050565b7f436572746966696361646f206e616f20656e636f6e747261646f2e0000000000600082015250565b6000611d0a601b836111e4565b9150611d1582611cd4565b602082019050919050565b60006020820190508181036000830152611d3981611cfd565b905091905056fea2646970667358221220ce12d56c7045ad57faa07ab141bf3452bd8289f8c5026eb30e9e42e076d1cf2e64736f6c634300081b0033",
    "linkReferences": {},
    "deployedLinkReferences": {}
}